:020000040800F2
:1000000000800020F9190008751900087D19000802
:10001000851900088D1900089519000800000000D6
:100020000000000000000000000000009D19000812
:10003000AB19000800000000B9190008C719000832
:10004000491A0008491A0008491A0008491A000804
:10005000491A0008491A0008491A0008491A0008F4
:10006000491A0008491A0008491A0008491A0008E4
:10007000491A0008491A0008491A0008491A0008D4
:10008000491A0008491A0008491A0008000000002F
:10009000000000000000000000000000491A0008F5
:1000A000491A0008491A0008491A0008491A0008A4
:1000B000000000000000000000000000491A0008D5
:1000C000491A0008491A0008491A0008491A000884
:1000D000491A0008491A0008491A000800000000DF
:1000E000491A0008491A000800000000000000003A
:1000F000000000000000000000000000491A000895
:100100000000000000000000491A00080000000084
:100110000000000000000000491A00080000000074
:10012000491A0008491A0008491A0008491A000823
:10013000491A000800000000000000000000000054
:1001400000000000000000000000000000000000AF
:10015000491A0008491A0008491A0008491A0008F3
:10016000000000000000000000000000000000008F
:10017000000000000000000000000000000000007F
:10018000491A0008491A0008000000000000000099
:1001900000000000491A00080000000000000000F4
:1001A000000000000000000000000000000000004F
:1001B000000000000000000000000000491A0008D4
:0801C000491A0008491A000861
:1001C80010B5054C237833B9044B13B10448AFF389
:1001D80000800123237010BD1000002000000000E3
:1001E8002431000808B5034B1BB103490348AFF39A
:1001F800008008BD00000000140000202431000821
:1002080081F0004102E000BF83F0004330B54FEABF
:1002180041044FEA430594EA050F08BF90EA020F2C
:100228001FBF54EA000C55EA020C7FEA645C7FEABF
:10023800655C00F0E2804FEA5454D4EB5555B8BFE2
:100248006D420CDD2C4480EA020281EA030382EA53
:10025800000083EA010180EA020281EA0303362DE5
:1002680088BF30BD11F0004F4FEA01314FF4801CB8
:100278004CEA113102D0404261EB410113F0004FCA
:100288004FEA03334CEA133302D0524263EB430381
:1002980094EA050F00F0A780A4F10104D5F1200E1F
:1002A8000DDB02FA0EFC22FA05F2801841F100017A
:1002B80003FA0EF2801843FA05F359410EE0A5F14E
:1002C80020050EF1200E012A03FA0EFC28BF4CF07F
:1002D800020C43FA05F3C01851EBE37101F0004535
:1002E80007D54FF0000EDCF1000C7EEB00006EEB42
:1002F8000101B1F5801F1BD3B1F5001F0CD34908CC
:100308005FEA30004FEA3C0C04F101044FEA445222
:1003180012F5800F80F09A80BCF1004F08BF5FEAA9
:10032800500C50F1000041EB045141EA050130BD89
:100338005FEA4C0C404141EB0101013C28BFB1F59B
:10034800801FE9D291F0000F04BF01460020B1FAE6
:1003580081F308BF2033A3F10B03B3F120020CDAB9
:100368000C3208DD02F1140CC2F10C0201FA0CF097
:1003780021FA02F10CE002F11402D8BFC2F1200CFC
:1003880001FA02F120FA0CFCDCBF41EA0C019040B2
:10039800E41AA2BF01EB0451294330BD6FEA0404FB
:1003A8001F3C1CDA0C340EDC04F11404C4F12002E6
:1003B80020FA04F001FA02F340EA030021FA04F3F8
:1003C80045EA030130BDC4F10C04C4F1200220FA4F
:1003D80002F001FA04F340EA0300294630BD21FA8D
:1003E80004F0294630BD94F0000F83F4801306BF53
:1003F80081F480110134013D4EE77FEA645C18BF47
:100408007FEA655C29D094EA050F08BF90EA020FDD
:1004180005D054EA000C04BF1946104630BD91EAD5
:10042800030F1EBF0021002030BD5FEA545C05D1D8
:100438004000494128BF41F0004130BD14F5800417
:100448003CBF01F5801130BD01F0004545F0FE418B
:1004580041F470014FF0000030BD7FEA645C1ABFC0
:10046800194610467FEA655C1CBF0B46024650EAF7
:10047800013406BF52EA033591EA030F41F4002123
:1004880030BD00BF90F0000F04BF0021704730B5A9
:100498004FF4806404F132044FF000054FF000017E
:1004A80050E700BF90F0000F04BF0021704730B53F
:1004B8004FF4806404F1320410F0004548BF404214
:1004C8004FF000013EE700BF42004FEAE2014FEA69
:1004D80031014FEA02701FBF12F07F4393F07F4F44
:1004E80081F06051704732F07F4208BF704793F047
:1004F8007F4F04BF41F40021704730B54FF460745A
:1005080001F0004521F000411CE700BF50EA01025C
:1005180008BF704730B54FF000050AE050EA010205
:1005280008BF704730B511F0004502D5404261EB75
:1005380041014FF4806404F132045FEA915C3FF4B6
:10054800D8AE4FF003025FEADC0C18BF03325FEA53
:10055800DC0C18BF033202EBDC02C2F1200300FA04
:1005680003FC20FA02F001FA03FE40EA0E0021FA29
:1005780002F11444BDE600BF70B54FF0FF0C4CF417
:10058800E06C1CEA11541DBF1CEA135594EA0C0FC9
:1005980095EA0C0F00F0DEF82C4481EA030621EA04
:1005A8004C5123EA4C5350EA013518BF52EA03353F
:1005B80041F4801143F4801338D0A0FB02CE4FF0F1
:1005C8000005E1FB02E506F00042E0FB03E54FF021
:1005D8000006E1FB03569CF0000F18BF4EF0010E19
:1005E800A4F1FF04B6F5007F64F5407404D25FEA15
:1005F8004E0E6D4146EB060642EAC62141EA5551C8
:100608004FEAC52040EA5E504FEACE2EB4F1FD0C09
:1006180088BFBCF5E06F1ED8BEF1004F08BF5FEA87
:10062800500E50F1000041EB045170BD06F0004639
:1006380046EA010140EA020081EA0301B4EB5C04E6
:10064800C2BFD4EB0C0541EA045170BD41F48011DE
:100658004FF0000E013C00F3AB8014F1360FDEBF03
:10066800002001F0004170BDC4F10004203C35DADF
:100678000C341BDC04F11404C4F1200500FA05F362
:1006880020FA04F001FA05F240EA020001F0004203
:1006980021F0004110EBD37021FA04F642EB060179
:1006A8005EEA430E08BF20EAD37070BDC4F10C04A3
:1006B800C4F1200500FA04F320FA05F001FA04F267
:1006C80040EA020001F0004110EBD37041F1000153
:1006D8005EEA430E08BF20EAD37070BDC4F120055E
:1006E80000FA05F24EEA020E20FA04F301FA05F2C6
:1006F80043EA020321FA04F001F0004121FA04F26E
:1007080020EA020000EBD3705EEA430E08BF20EA3D
:10071800D37070BD94F0000F0FD101F00046400077
:1007280041EB010111F4801F08BF013CF7D041EAF9
:10073800060195F0000F18BF704703F000465200FD
:1007480043EB030313F4801F08BF013DF7D043EACE
:100758000603704794EA0C0F0CEA135518BF95EA84
:100768000C0F0CD050EA410618BF52EA4306D1D10B
:1007780081EA030101F000414FF0000070BD50EA2A
:10078800410606BF1046194652EA430619D094EAB4
:100798000C0F02D150EA013613D195EA0C0F05D19E
:1007A80052EA03361CBF104619460AD181EA0301F2
:1007B80001F0004141F0FE4141F470014FF00000AA
:1007C80070BD41F0FE4141F4780170BD70B54FF045
:1007D800FF0C4CF4E06C1CEA11541DBF1CEA1355C5
:1007E80094EA0C0F95EA0C0F00F0A7F8A4EB0504A7
:1007F80081EA030E52EA03354FEA013100F088809E
:100808004FEA03334FF0805545EA131343EA126366
:100818004FEA022245EA111545EA10654FEA00261B
:100828000EF000419D4208BF964244F1FD0404F5D4
:10083800407402D25B084FEA3202B61A65EB030530
:100848005B084FEA32024FF480104FF4002CB6EBED
:10085800020E75EB030E22BFB61A754640EA0C006D
:100868005B084FEA3202B6EB020E75EB030E22BFAD
:10087800B61A754640EA5C005B084FEA3202B6EBEE
:10088800020E75EB030E22BFB61A754640EA9C00AD
:100898005B084FEA3202B6EB020E75EB030E22BF7D
:1008A800B61A754640EADC0055EA060E18D04FEA3B
:1008B800051545EA16754FEA06164FEAC30343EADB
:1008C80052734FEAC2025FEA1C1CC0D111F4801FA8
:1008D8000BD141EA00014FF000004FF0004CB6E7A1
:1008E80011F4801F04BF01430020B4F1FD0C88BF40
:1008F800BCF5E06F3FF6AFAEB5EB030C04BFB6EB4B
:10090800020C5FEA500C50F1000041EB045170BD3D
:100918000EF0004E4EEA113114EB5C04C2BFD4EB6A
:100928000C0541EA045170BD41F480114FF0000EEE
:10093800013C90E645EA060E8DE60CEA135594EA6A
:100948000C0F08BF95EA0C0F3FF43BAF94EA0C0F6D
:100958000AD150EA01347FF434AF95EA0C0F7FF4E2
:1009680025AF104619462CE795EA0C0F06D152EA36
:1009780003353FF4FDAE1046194622E750EA41061A
:1009880018BF52EA43067FF4C5AE50EA41047FF42B
:100998000DAF52EA43057FF4EBAE12E74FEA41028E
:1009A80012F5001215D211D56FF47873B3EB6252B9
:1009B80012D94FEAC12343F0004343EA505311F0E0
:1009C800004F23FA02F018BF404270474FF0000072
:1009D800704750EA013005D111F0004008BF6FF0B0
:1009E800004070474FF00000704700BF4FEA4102D7
:1009F800B2F1E04324BFB3F5001CDCF1FE5C0DD975
:100A080001F0004C4FEAC0024CEA5070B2F1004FBE
:100A180040EB830008BF20F00100704711F0804FC1
:100A280021D113F13872BCBF01F00040704741F486
:100A380080114FEA5252C2F11802C2F1200C10FA8A
:100A48000CF320FA02F018BF40F001004FEAC1236E
:100A58004FEAD32303FA0CFC40EA0C0023FA02F312
:100A68004FEA4303CCE77FEA625307D150EA0133E8
:100A78001EBF4FF0FE4040F44000704701F00040B8
:100A880040F0FE4040F40000704700BF53B94AB937
:100A9800002908BF00281CBF4FF0FF314FF0FF307E
:100AA80000F06AB9ADF1080C6DE904CE00F006F863
:100AB800DDF804E0DDE9022304B070472DE9F047D2
:100AC800089D0C46002B4ED194468C458646B2FABA
:100AD80082F262D94AB1C2F12003914020FA03F3AD
:100AE8000CFA02FC194300FA02FE4FEA1C471FFAEF
:100AF8008CF6B1FBF7F44FEA1E4307FB141143EAE7
:100B0800014304FB06F199420AD91CEB030304F1E3
:100B1800FF3080F01281994240F20F81023C634419
:100B2800591A1FFA8EF3B1FBF7F007FB101143EACD
:100B3800014300FB06F69E420AD91CEB030300F1B1
:100B4800FF3180F0FC809E4240F2F9806344023815
:100B58009B1B40EA044000211DB1D3400022C5E997
:100B68000032BDE8F0878B4205D90DB1C5E9000117
:100B780000210846F5E7B3FA83F1002946D1A342DC
:100B880002D39042C0F0F080861A64EB0303012080
:100B9800002DE6D0C5E90063E3E7002A40F0908025
:100BA800A1EB0C044FEA1C481FFA8CF70121B4FB97
:100BB800F8F64FEA1E4308FB164443EA044307FBD2
:100BC80006F0984208D91CEB030306F1FF3402D261
:100BD800984200F2CD8026461C1A1FFA8EF3B4FB09
:100BE800F8F008FB104443EA044300FB07F79F4270
:100BF80008D91CEB030300F1FF3402D29F4200F234
:100C0800B0802046DB1B40EA0640A5E7C1F120067C
:100C18008B4022FA06F71F4320FA06FC04FA01F378
:100C280043EA0C03F44000FA01F8380C4FEA134980
:100C3800B4FBF0FE1FFA87FC00FB1E4449EA04449B
:100C48000EFB0CF9A14502FA01F20AD93C190EF182
:100C5800FF3A80F08480A14540F28180AEF1020E17
:100C68003C44A4EB09041FFA83F9B4FBF0F300FB3E
:100C7800134449EA044403FB0CFCA44507D93C1976
:100C880003F1FF3067D2A44565D9023B3C4443EAEF
:100C98000E40A0FB0293A4EB0C049C42CE469C465B
:100CA80051D34ED055B1B8EB0E0364EB0C0404FAE3
:100CB80006F6CB401E43CC40C5E90064002150E74E
:100CC800C2F1200320FA03F10CFA02FC24FA03F320
:100CD80094400C434FEA1C4800FA02FE1FFA8CF7B6
:100CE800B3FBF8F008FB1031230C43EA014300FB87
:100CF80007F1994208D91CEB030300F1FF362CD207
:100D080099422AD9023863445B1AA4B2B3FBF8F1BA
:100D180008FB113344EA034401FB07F3A34208D953
:100D28001CEB040401F1FF3613D2A34211D9023996
:100D38006444E41A41EA004139E70446F0E608460B
:100D480006E7C845AED2B9EB020E63EB070C0138D3
:100D5800A8E73146EDE7034699E73046D4E7D6469B
:100D68007FE7634402384DE70646234608460FE707
:100D7800023E634430E700BF704700BF0000000038
:100D880080B500AF00F05EFE00F05AFC00F014FDE4
:100D980000F0C0FCCE4800F00BFF4FF0FF31CC480C
:100DA80000F0BAFFCA4801F042F803469AB2C94BAC
:100DB8001A80C84B1B8807EE903AF8EE677A17EE50
:100DC800900AFFF781FBC0A3D3E90023FFF7FEFCDD
:100DD80002460B46104619464FF00002BE4BFFF77D
:100DE800CBFB02460B46104619464FF00002BB4BA0
:100DF800FFF7ECFC02460B46104619464FF000027E
:100E0800B74BFFF7B9FB02460B4610461946FFF7EA
:100E1800EDFD0346B34A1360B24B1B681846FFF753
:100E280053FB02460B46B04843EC102B02F0FAF88D
:100E3800B0EE407AF0EE607AAC4B83ED007BAA4BC3
:100E4800D3E9002310461946FFF7A8FD03460A2BED
:100E580000F2BC8101A252F823F000BF910E0008F5
:100E6800D90E0008210F0008690F0008B10F00080B
:100E7800F90F00084110000889100008FD1000084B
:100E8800451100088D11000801220221984801F03F
:100E980053FC01220421964801F04EFC012208214E
:100EA800934801F049FC01221021914801F044FCCB
:100EB800012220218E4801F03FFC012240218C486C
:100EC80001F03AFC00228021894801F035FC7EE1DE
:100ED80000220221864801F02FFC012204218448C7
:100EE80001F02AFC01220821814801F025FC00229A
:100EF80010217F4801F020FC002220217C4801F0CD
:100F08001BFC002240217A4801F016FC00228021B7
:100F1800774801F011FC5AE101220221744801F0DE
:100F28000BFC01220421724801F006FC0022082172
:100F38006F4801F001FC012210216D4801F0FCFB13
:100F4800012220216A4801F0F7FB0022402168486D
:100F580001F0F2FB01228021654801F0EDFB36E14A
:100F680001220221624801F0E7FB012204216048C6
:100F780001F0E2FB012208215D4801F0DDFB0122BE
:100F880010215B4801F0D8FB00222021584801F0CD
:100F9800D3FB00224021564801F0CEFB01228021DC
:100FA800534801F0C9FB12E100220221504801F028
:100FB800C3FB012204214E4801F0BEFB0122082197
:100FC8004B4801F0B9FB00221021494801F0B4FB5D
:100FD80000222021464801F0AFFB0122402144486D
:100FE80001F0AAFB01228021414801F0A5FBEEE0B7
:100FF800012202213E4801F09FFB002204213C48C7
:1010080001F09AFB01220821394801F095FB0122E1
:101018001021374801F090FB00222021344801F0CC
:101028008BFB01224021324801F086FB01228021FE
:101038002F4801F081FBCAE0012202212C4801F06F
:101048007BFB002204212A4801F076FB01220821BB
:10105800274801F071FB01221021254801F06CFBA3
:1010680001222021224801F067FB0122402120486B
:1010780001F062FB012280211D4801F05DFBA6E022
:10108800012202211A4801F057FB012204211848C5
:1010980001F052FB01220821154801F04DFB002206
:1010A8001021134801F048FB00222021104801F0CC
:1010B80043FB002240210E4801F03EFB0022802124
:1010C8000B4801F039FB82E00000000000FEAF4051
:1010D8002C00002074000020000014400000244070
:1010E80000003E407800002080000020880000209A
:1010F8000000024001220221CA4801F01DFB012222
:101108000421C84801F018FB01220821C54801F054
:1011180013FB01221021C34801F00EFB01222021FC
:10112800C04801F009FB01224021BE4801F004FB40
:1011380001228021BB4801F0FFFA48E00122022188
:10114800B84801F0F9FA01220421B64801F0F4FA8E
:1011580001220821B34801F0EFFA01221021B14819
:1011680001F0EAFA00222021AE4801F0E5FA012256
:101178004021AC4801F0E0FA01228021A94801F0A1
:10118800DBFA24E001220221A64801F0D5FA012267
:101198000421A44801F0D0FA01220821A14801F055
:1011A800CBFA012210219F4801F0C6FA0122202122
:1011B8009C4801F0C1FA012240219A4801F0BCFA8A
:1011C80000228021974801F0B7FA00E000BF964B53
:1011D800D3E900014FF00002944BFFF7CDF9024626
:1011E8000B4610461946FFF7D9FB0346092B00F2B8
:1011F800CB8101A252F823F0291200087F120008BF
:10120800D51200082B13000881130008D713000813
:10121800391400088F140008E51400083B1500086D
:1012280001224FF480717F4801F086FA01224FF4C1
:1012380000717C4801F080FA01224FF480617948FE
:1012480001F07AFA01224FF40061764801F074FA4D
:1012580001224FF48051734801F06EFA01224FF4D5
:101268000051704801F068FA00224FF480416D483F
:1012780001F062FA89E100224FF48071694801F0B7
:101288005BFA01224FF40071664801F055FA012219
:101298004FF48061634801F04FFA00224FF4006177
:1012A800604801F049FA00224FF480515D4801F08E
:1012B80043FA00224FF400515A4801F03DFA002247
:1012C8004FF48041574801F037FA5EE101224FF4AC
:1012D8008071544801F030FA01224FF400715148EE
:1012E80001F02AFA00224FF480614E4801F024FAF6
:1012F80001224FF400614B4801F01EFA01224FF41D
:101308008051484801F018FA00224FF4005145482E
:1013180001F012FA01224FF48041424801F00CFA20
:1013280033E101224FF480713E4801F005FA0122B1
:101338004FF400713B4801F0FFF901224FF480613E
:10134800384801F0F9F901224FF40061354801F0FD
:10135800F3F900224FF48051324801F0EDF90022F0
:101368004FF400512F4801F0E7F901224FF4804172
:101378002C4801F0E1F908E100224FF48071294876
:1013880001F0DAF901224FF40071264801F0D4F98E
:1013980001224FF48061234801F0CEF900224FF476
:1013A8000061204801F0C8F900224FF480511D481F
:1013B80001F0C2F901224FF400511A4801F0BCF9BA
:1013C80001224FF48041174801F0B6F9DDE001220F
:1013D8004FF48071134801F0AFF900224FF4007107
:1013E800104801F0A9F901224FF480610D4801F07D
:1013F800A3F901224FF400610A4801F09DF9002287
:101408004FF48051074801F097F901224FF4005139
:10141800044801F091F901224FF48041014801F09C
:101428008BF9B2E000000240880000200000244050
:1014380001224FF480717F4801F07EF900224FF4B9
:1014480000717C4801F078F901224FF480617948F5
:1014580001F072F901224FF40061764801F06CF94D
:1014680001224FF48051734801F066F901224FF4CC
:101478000051704801F060F901224FF480416D4835
:1014880001F05AF981E001224FF48071694801F0B6
:1014980053F901224FF40071664801F04DF9012219
:1014A8004FF48061634801F047F900224FF400616E
:1014B800604801F041F900224FF480515D4801F085
:1014C8003BF900224FF400515A4801F035F9002247
:1014D8004FF48041574801F02FF956E001224FF4AC
:1014E8008071544801F028F901224FF400715148E5
:1014F80001F022F901224FF480614E4801F01CF9F5
:1015080001224FF400614B4801F016F901224FF413
:101518008051484801F010F901224FF40051454824
:1015280001F00AF901224FF48041424801F004F920
:101538002BE001224FF480713E4801F0FDF80122B2
:101548004FF400713B4801F0F7F801224FF4806135
:10155800384801F0F1F801224FF40061354801F0F4
:10156800EBF800224FF48051324801F0E5F80122EF
:101578004FF400512F4801F0DFF801224FF4804169
:101588002C4801F0D9F800E000BF2B4BD3E9002329
:1015980010461946FFF702FA03460A2B24D1002207
:1015A8000221264801F0C8F801220421234801F04D
:1015B800C3F801220821214801F0BEF800221021B9
:1015C8001E4801F0B9F8002220211C4801F0B4F8A7
:1015D80000224021194801F0AFF800228021174865
:1015E80001F0AAF8FFF7D6BB00220221134801F048
:1015F800A3F800220421114801F09EF800220821D6
:101608000E4801F099F8002210210C4801F094F8D6
:1016180000222021094801F08FF8002240210748C4
:1016280001F08AF800228021044801F085F8FFF7CC
:10163800B1BB00BF0000024080000020000402404F
:1016480080B594B000AF07F11C033422002118467E
:1016580001F0BCFC07F1080300221A605A609A6086
:10166800DA601A6100237B60284B1B6C274A43F021
:1016780080531364254B1B6C03F080537B607B689D
:1016880000233B60224B1B68214A43F4404313600C
:101698001F4B1B6803F440433B603B680223FB611C
:1016A8000123BB621023FB6202237B630023BB631D
:1016B8000823FB6364233B6402237B640423BB6429
:1016C8000223FB6407F11C03184601F0FBF90346EB
:1016D800002B01D000F0D8F80F23BB600223FB6079
:1016E80000233B614FF480537B610023BB6107F10A
:1016F80008030321184601F039F80346002B01D0EE
:1017080000F0C2F800BF5037BD4680BD0038024027
:101718000070004080B584B000AF3B4600221A60DC
:101728005A609A60DA60214B214A1A601F4B4FF4C5
:1017380080325A601D4B00229A601C4B00221A61AD
:101748001A4B00221A76194B002283F82020174BD7
:101758000022DA62154B174A9A62144B0022DA60AB
:10176800124B0122DA61114B002283F830200F4B13
:1017780001225A610D4800F0D7F90346002B01D029
:1017880000F082F800233B6001237B600023BB60EC
:101798003B461946054800F057FB0346002B01D08D
:1017A80000F072F800BF1037BD4680BD2C00002045
:1017B800002001400100000F80B588B000AF07F19C
:1017C8000C0300221A605A609A60DA601A610023DA
:1017D800BB602A4B1B6B294A43F080031363274BDA
:1017E8001B6B03F08003BB60BB6800237B60234B4B
:1017F8001B6B224A43F001031363204B1B6B03F05E
:1018080001037B607B6800233B601C4B1B6B1B4AFE
:1018180043F002031363194B1B6B03F002033B6095
:101828003B68002247F6FE71154800F085FF00224C
:10183800FE21144800F080FF47F6FE73FB60012389
:101848003B6100237B610023BB6107F10C03194650
:101858000B4800F0FDFDFE23FB6001233B610023E4
:101868007B610023BB6107F10C031946054800F0B2
:10187800EFFD00BF2037BD4680BD00BF00380240E5
:10188800000002400004024080B400AF72B600BFFE
:1018980000BFFDE780B483B000AF00237B60104B2E
:1018A8005B6C0F4A43F4804353640D4B5B6C03F449
:1018B80080437B607B6800233B60094B1B6C084AB4
:1018C80043F080531364064B1B6C03F080533B605A
:1018D8003B6800BF0C37BD465DF8047B704700BF0E
:1018E8000038024080B58AB000AF786007F1140371
:1018F80000221A605A609A60DA601A617B681B6875
:10190800174A934227D100233B61164B5B6C154A5B
:1019180043F480735364134B5B6C03F480733B6133
:101928003B690023FB600F4B1B6B0E4A43F001031E
:1019380013630C4B1B6B03F00103FB60FB68012373
:101948007B610323BB610023FB6107F11403194684
:10195800054800F07DFD00BF2837BD4680BD00BFAB
:1019680000200140003802400000024080B400AF6F
:1019780000BFFDE780B400AF00BFFDE780B400AF53
:1019880000BFFDE780B400AF00BFFDE780B400AF43
:1019980000BFFDE780B400AF00BFBD465DF8047B23
:1019A800704780B400AF00BFBD465DF8047B704748
:1019B80080B400AF00BFBD465DF8047B704780B5BA
:1019C80000AF00F091F800BF80BD000080B400AF08
:1019D800064BD3F88830054A43F47003C2F88830C0
:1019E80000BFBD465DF8047B704700BF00ED00E016
:1019F800DFF834D0FFF7EAFF0C480D490D4A002301
:101A080002E0D458C4500433C4188C42F9D30A4AAB
:101A18000A4C002301E013600432A242FBD301F018
:101A2800DDFAFFF7ADF970470080002000000020C4
:101A38000C0000205C3100081000002094000020F9
:101A4800FEE7000080B500AF0E4B1B680D4A43F45B
:101A5800007313600B4B1B680A4A43F480631360DE
:101A6800084B1B68074A43F480731360032000F097
:101A7800BBFC0F2000F008F8FFF70CFF0023184606
:101A880080BD00BF003C024080B582B000AF7860E6
:101A9800124B1A68124B1B7819464FF47A73B3FB32
:101AA800F1F3B2FBF3F3184600F0C5FC0346002B34
:101AB80001D001230EE07B680F2B0AD80022796839
:101AC8004FF0FF3000F09BFC064A7B681360002350
:101AD80000E0012318460837BD4680BD00000020FD
:101AE800080000200400002080B400AF064B1B78DB
:101AF8001A46064B1B681344044A136000BFBD46D0
:101B08005DF8047B704700BF0800002090000020AB
:101B180080B400AF034B1B681846BD465DF8047BD4
:101B2800704700BF9000002080B584B000AF786097
:101B38000023FB737B68002B01D1012333E07B6812
:101B48001B6C002B09D17868FFF7CCFE7B6800225C
:101B58005A647B68002283F83C207B681B6C03F086
:101B68001003002B18D17B681B6C23F4885323F0D7
:101B7800020343F002027B681A64786800F086FA70
:101B88007B6800225A647B681B6C23F0030343F0D4
:101B980001027B681A6401E00123FB737B68002261
:101BA80083F83C20FB7B18461037BD4680BD0000FB
:101BB80080B485B000AF78600023BB607B6893F881
:101BC8003C30012B01D1022397E07B68012283F886
:101BD8003C207B681B689B6803F00103012B18D02D
:101BE8007B681B689A687B681B6842F001029A60F0
:101BF800454B1B68454AA2FB03239A0C13465B001E
:101C08001344BB6002E0BB68013BBB60BB68002BB0
:101C1800F9D17B681B689B6803F00103012B5FD136
:101C28007B681B6C23F4E06323F0010343F48072A8
:101C38007B681A647B681B685B6803F48063002B0D
:101C480007D07B681B6C23F4405343F480527B68B5
:101C58001A647B681B6C03F48053B3F5805F06D16C
:101C68007B685B6C23F006027B685A6402E07B6841
:101C780000225A647B68002283F83C20244BFB60D6
:101C88007B681B686FF022021A60FB685B6803F0D0
:101C98001F03002B0FD17B681B689B6803F0405320
:101CA800002B29D17B681B689A687B681B6842F007
:101CB80080429A6020E07B681B68164A93421BD1D9
:101CC8007B681B689B6803F04053002B14D17B682A
:101CD8001B689A687B681B6842F080429A600BE038
:101CE8007B681B6C43F010027B681A647B685B6C32
:101CF80043F001027B685A64002318461437BD4636
:101D08005DF8047B704700BF0000002083DE1B43A2
:101D1800002301400020014080B584B000AF786006
:101D280039600023FB607B681B689B6803F4806351
:101D3800B3F5806F13D17B681B689B6803F48073CD
:101D4800B3F5807F0BD17B681B6C43F020027B6866
:101D58001A647B68002283F83C20012363E0FFF7C4
:101D6800D7FEF86021E03B68B3F1FF3F1DD03B6828
:101D7800002B07D0FFF7CCFE0246FB68D31A3A685F
:101D88009A4212D27B681B681B6803F00203022B7D
:101D98000BD07B681B6C43F004027B681A647B6879
:101DA800002283F83C2003233DE07B681B681B6806
:101DB80003F00203022BD6D17B681B686FF0120276
:101DC8001A607B681B6C43F400727B681A647B683A
:101DD8001B689B6803F04053002B23D17B681B7E54
:101DE800002B1FD17B681B68DB6A03F47003002B90
:101DF80006D07B681B689B6803F48063002B11D1B5
:101E08007B681B6C23F480727B681A647B681B6C8C
:101E180003F48053002B05D17B681B6C43F001024F
:101E28007B681A64002318461037BD4680BD80B40D
:101E380083B000AF78607B681B68DB6C18460C3792
:101E4800BD465DF8047B704780B485B000AF78600C
:101E580039600023BB607B6893F83C30012B01D1CB
:101E6800022305E17B68012283F83C203B681B685C
:101E7800092B25D97B681B68D9683B681B689BB20E
:101E88001A4613465B0013441E3B072202FA03F36B
:101E9800DA437B681B680A40DA607B681B68D9688C
:101EA8003B689A683B681B689BB2184603465B0010
:101EB80003441E3B9A407B681B680A43DA6022E0B1
:101EC8007B681B6819693B681B689BB21A461346F6
:101ED8005B001344072202FA03F3DA437B681B68AA
:101EE8000A401A617B681B6819693B689A683B68F5
:101EF8001B689BB2184603465B0003449A407B6804
:101F08001B680A431A613B685B68062B24D87B6808
:101F18001B68596B3B685A6813469B001344053B82
:101F28001F2202FA03F3DA437B681B680A405A63EC
:101F38007B681B68596B3B681B689BB218463B68FB
:101F48005A6813469B001344053B00FA03F27B686A
:101F58001B680A435A634CE03B685B680C2B24D827
:101F68007B681B68196B3B685A6813469B001344CF
:101F7800233B1F2202FA03F3DA437B681B680A40FB
:101F88001A637B681B68196B3B681B689BB2184611
:101F98003B685A6813469B001344233B00FA03F23C
:101FA8007B681B680A431A6323E07B681B68D96A4D
:101FB8003B685A6813469B001344413B1F2202FAB0
:101FC80003F3DA437B681B680A40DA627B681B68A4
:101FD800D96A3B681B689BB218463B685A68134627
:101FE8009B001344413B00FA03F27B681B680A43D9
:101FF800DA62224BFB607B681B68214A934209D155
:102008003B681B68122B05D1FB685B6843F48002B0
:10201800FB685A607B681B68194A934223D13B6866
:102028001B68102B03D03B681B68112B1BD1FB6866
:102038005B6843F40002FB685A603B681B68102B1E
:1020480011D1104B1B68104AA2FB03239A0C1346AC
:102058009B0013445B00BB6002E0BB68013BBB60B4
:10206800BB68002BF9D17B68002283F83C20002351
:1020780018461437BD465DF8047B704700230140BD
:10208800002001400000002083DE1B4380B485B09F
:1020980000AF7860794BFB60FB685B6823F44032E3
:1020A800FB685A60FB685A687B685B681A43FB6880
:1020B8005A607B681B685A687B681B6822F48072C8
:1020C8005A607B681B6859687B681B691A027B68C1
:1020D8001B680A435A607B681B685A687B681B68E0
:1020E80022F040725A607B681B6859687B689A685E
:1020F8007B681B680A435A607B681B689A687B6820
:102108001B6822F400629A607B681B6899687B6888
:10211800DA687B681B680A439A607B689B6A584A3E
:10212800934222D07B681B689A687B681B6822F000
:1021380070629A607B681B6899687B689A6A7B689A
:102148001B680A439A607B681B689A687B681B68EF
:1021580022F040529A607B681B6899687B68DA6A4B
:102168007B681B680A439A600FE07B681B689A6863
:102178007B681B6822F070629A607B681B689A68AB
:102188007B681B6822F040529A607B681B689A68DB
:102198007B681B6822F002029A607B681B6899685A
:1021A8007B681B7E5A007B681B680A439A607B68C1
:1021B80093F82030002B1BD07B681B685A687B681B
:1021C8001B6842F400625A607B681B685A687B6827
:1021D8001B6822F460425A607B681B6859687B68F8
:1021E8005B6A013B5A037B681B680A435A6007E035
:1021F8007B681B685A687B681B6822F400625A6017
:102208007B681B68DA6A7B681B6822F47002DA62F2
:102218007B681B68D96A7B68DB69013B1A057B68A8
:102228001B680A43DA627B681B689A687B681B68CC
:1022380022F400729A607B681B6899687B6893F83F
:1022480030305A027B681B680A439A607B681B68B7
:102258009A687B681B6822F480629A607B681B68B6
:1022680099687B685B699A027B681B680A439A6075
:1022780000BF1437BD465DF8047B7047002301405A
:102288000100000F80B485B000AF78607B6803F070
:102298000703FB600C4BDB68BB60BA684FF6FF03B3
:1022A8001340BB60FB681A02BB68134343F0BF636B
:1022B80043F40033BB60044ABB68D36000BF1437E3
:1022C800BD465DF8047B704700ED00E080B400AFC8
:1022D800044BDB681B0A03F007031846BD465DF88C
:1022E800047B704700ED00E080B483B000AF034684
:1022F8003960FB7197F90730002B0ADB3B68DAB2CB
:102308000C4997F907301201D2B20B4483F8002325
:102318000AE03B68DAB20849FB7903F00F03043B93
:102328001201D2B20B441A7600BF0C37BD465DF8D5
:10233800047B704700E100E000ED00E080B489B064
:1023480000AFF860B9607A60FB6803F00703FB61CF
:10235800FB69C3F10703042B28BF0423BB61FB6996
:102368000433062B02D9FB69033B00E000237B61A1
:102378004FF0FF32BB6902FA03F3DA43BB681A4035
:102388007B699A404FF0FF317B6901FA03F3D94327
:102398007B680B40134318462437BD465DF8047B21
:1023A8007047000080B582B000AF78607B68013B61
:1023B800B3F1807F01D301230FE00A4A7B68013B18
:1023C80053600F214FF0FF30FFF78EFF054B0022BF
:1023D8009A60044B07221A60002318460837BD4646
:1023E80080BD00BF10E000E080B582B000AF78602B
:1023F8007868FFF747FF00BF0837BD4680BD80B546
:1024080086B000AF0346B9607A60FB7300237B6136
:10241800FFF75CFF78617A68B9687869FFF78EFF23
:10242800024697F90F3011461846FFF75DFF00BFC7
:102438001837BD4680BD80B582B000AF7860786837
:10244800FFF7B0FF034618460837BD4680BD0000B9
:1024580080B489B000AF7860396000237B610023C5
:102468003B610023BB610023FB614DE10122FB6955
:1024780002FA03F37B613B681B687A6913403B618E
:102488003A697B699A4240F03C813B685B6803F09B
:102498000303012B05D03B685B6803F00303022BA1
:1024A80030D17B689B68BB61FB695B00032202FA41
:1024B80003F3DB43BA691340BB613B68DA68FB6925
:1024C8005B0002FA03F3BA691343BB617B68BA691C
:1024D8009A607B685B68BB610122FB6902FA03F3BF
:1024E800DB43BA691340BB613B685B681B0903F0B7
:1024F8000102FB6902FA03F3BA691343BB617B6803
:10250800BA695A603B685B6803F00303032B17D072
:102518007B68DB68BB61FB695B00032202FA03F39B
:10252800DB43BA691340BB613B689A68FB695B008F
:1025380002FA03F3BA691343BB617B68BA69DA60CC
:102548003B685B6803F00303022B23D1FB69DA08BD
:102558007B68083253F82230BB61FB6903F007033C
:102568009B000F2202FA03F3DB43BA691340BB61F5
:102578003B681A69FB6903F007039B0002FA03F33F
:10258800BA691343BB61FB69DA087B680832B96929
:1025980043F822107B681B68BB61FB695B00032260
:1025A80002FA03F3DB43BA691340BB613B685B681B
:1025B80003F00302FB695B0002FA03F3BA691343F1
:1025C800BB617B68BA691A603B685B6803F4403397
:1025D800002B00F096800023FB60514B5B6C504A47
:1025E80043F4804353644E4B5B6C03F48043FB60BD
:1025F800FB684C4AFB699B08023352F82330BB61E5
:10260800FB6903F003039B000F2202FA03F3DB4389
:10261800BA691340BB617B68434A93420DD07B681B
:10262800424A934207D07B68414A934201D1022330
:1026380004E0072302E0012300E00023FA6902F026
:10264800030292009340BA691343BB613549FB69A1
:102658009B080233BA6941F82320364B9B68BB615B
:102668003B69DB43BA691340BB613B685B6803F4B1
:102678008013002B03D0BA693B691343BB612D4A11
:10268800BB6993602B4BDB68BB613B69DB43BA6971
:102698001340BB613B685B6803F40013002B03D055
:1026A800BA693B691343BB61224ABB69D360214BBA
:1026B8005B68BB613B69DB43BA691340BB613B683C
:1026C8005B6803F40033002B03D0BA693B691343FA
:1026D800BB61184ABB695360164B1B68BB613B69F9
:1026E800DB43BA691340BB613B685B6803F4803322
:1026F800002B03D0BA693B691343BB610D4ABB6920
:102708001360FB690133FB61FB690F2B7FF6AEAEEB
:1027180000BF00BF2437BD465DF8047B704700BF8B
:102728000038024000380140000002400004024026
:1027380000080240003C014080B483B000AF7860DC
:102748000B467B8013467B707B78002B03D07A88FE
:102758007B689A6103E07B881A047B689A6100BFF2
:102768000C37BD465DF8047B7047000080B584B027
:1027780000AF786039607B68002B01D10123CCE081
:10278800684B1B6803F007033A689A420CD9654BFB
:102798003A68D2B21A70634B1B6803F007033A68B1
:1027A8009A4201D00123B8E07B681B6803F002035A
:1027B800002B20D07B681B6803F00403002B05D096
:1027C800594B9B68584A43F4E05393607B681B68F5
:1027D80003F00803002B05D0534B9B68524A43F47F
:1027E80060439360504B9B6823F0F0027B689B68C2
:1027F8004D4913438B607B681B6803F00103002B72
:1028080044D07B685B68012B07D1474B1B6803F4F6
:102818000033002B19D101237FE07B685B68022B12
:1028280003D07B685B68032B07D13F4B1B6803F021
:102838000073002B09D101236FE03B4B1B6803F0A9
:102848000203002B01D1012367E0374B9B6823F07B
:1028580003027B685B68344913438B60FFF758F9C0
:10286800F8600AE0FFF754F90246FB68D31A41F210
:102878008832934201D903234FE02B4B9B6803F026
:102888000C027B685B689B009A42EBD1254B1B6866
:1028980003F007033A689A420CD2224B3A68D2B244
:1028A8001A70204B1B6803F007033A689A4201D05C
:1028B800012332E07B681B6803F00403002B08D077
:1028C800194B9B6823F4E0527B68DB681649134375
:1028D8008B607B681B6803F00803002B09D0124B40
:1028E8009B6823F460427B681B69DB000E49134335
:1028F8008B6000F021F802460B4B9B681B0903F024
:102908000F030A49CB5C22FA03F3094A1360094B07
:102918001B681846FFF7B8F8002318461037BD465D
:1029280080BD00BF003C0240003802403C31000836
:1029380000000020040000202DE9B04F90B000AF47
:1029480000237B630023FB6300233B630023BB63FB
:10295800594B9B6803F00C03082B0DD0082B00F291
:10296800A180002B02D0042B03D09BE0534BBB6308
:102978009BE0534BBB6398E04F4B5B6803F03F030E
:102988007B634D4B5B6803F48003002B28D04A4BD4
:102998005B689B0900223B627A623B6AC3F30800CA
:1029A8000021474B03FB01F2002300FB03F3134410
:1029B800434AA0FB0212FA620A46BA62FA6A134450
:1029C800FB627B6B0022BB61FA61D7E90623D7E97A
:1029D8000A01FEF75BF802460B461346FB6353E019
:1029E800354B5B689B0900223B617A613B69C3F305
:1029F800080A4FF0000B52465B464FF000004FF0BC
:102A08000001590141EAD261500102460B46B2EB7E
:102A18000A0863EB0B094FF000024FF000034FEA7E
:102A2800891343EA98634FEA8812B2EB080463EB10
:102A380009054FF000024FF00003EB0043EA54731E
:102A4800E20014461D4614EB0A033B6045EB0B03FA
:102A58007B604FF000024FF00003D7E9004529469C
:102A68008B02214643EA915321468A0210461946B1
:102A78007B6B0022BB60FA60D7E90223FEF706F8F9
:102A880002460B461346FB630B4B5B681B0C03F0BB
:102A9800030301335B003B63FA6B3B6BB2FBF3F35D
:102AA800BB6302E0054BBB6300BFBB6B18464037F6
:102AB800BD46BDE8B08F00BF003802400024F400D6
:102AC80040787D0180B586B000AF78607B68002BC8
:102AD80001D1012373E27B681B6803F00103002B1B
:102AE80075D0884B9B6803F00C03042B0CD0854BE6
:102AF8009B6803F00C03082B12D1824B5B6803F42C
:102B08008003B3F5800F0BD17E4B1B6803F40033B1
:102B1800002B5BD07B685B68002B57D101234EE20A
:102B28007B685B68B3F5803F06D1764B1B68754AB6
:102B380043F4803313601DE07B685B68B3F5A02F16
:102B48000CD1704B1B686F4A43F4802313606D4BA4
:102B58001B686C4A43F4803313600BE0694B1B68B5
:102B6800684A23F480331360664B1B68654A23F474
:102B7800802313607B685B68002B13D0FEF7C8FFC7
:102B8800386108E0FEF7C4FF02463B69D31A642B9C
:102B980001D9032313E25B4B1B6803F40033002BBA
:102BA800F0D014E0FEF7B4FF386108E0FEF7B0FF9C
:102BB80002463B69D31A642B01D90323FFE1514B29
:102BC8001B6803F40033002BF0D100E000BF7B68E2
:102BD8001B6803F00203002B63D04A4B9B6803F089
:102BE8000C03002B0BD0474B9B6803F00C03082BFE
:102BF8001CD1444B5B6803F48003002B16D1414B76
:102C08001B6803F00203002B05D07B68DB68012BEF
:102C180001D00123D3E13B4B1B6823F0F8027B680A
:102C28001B69DB00374913430B603AE07B68DB68BC
:102C3800002B20D0344B01221A60FEF769FF38615F
:102C480008E0FEF765FF02463B69D31A022B01D95B
:102C58000323B4E12B4B1B6803F00203002BF0D0D5
:102C6800284B1B6823F0F8027B681B69DB002549A9
:102C780013430B6015E0244B00221A60FEF748FF4F
:102C8800386108E0FEF744FF02463B69D31A022B7D
:102C980001D9032393E11B4B1B6803F00203002BAC
:102CA800F0D17B681B6803F00803002B36D07B68E3
:102CB8005B69002B16D0154B01221A60FEF728FF1E
:102CC800386108E0FEF724FF02463B69D31A022B5D
:102CD80001D9032373E10B4B5B6F03F00203002B55
:102CE800F0D01BE0094B00221A60FEF711FF386193
:102CF8000EE0FEF70DFF02463B69D31A022B07D9F7
:102D080003235CE10038024000004742800E47423E
:102D18008A4B5B6F03F00203002BEAD17B681B68C8
:102D280003F00403002B00F097800023FB75834B0E
:102D38001B6C03F08053002B0FD10023BB607F4B2B
:102D48001B6C7E4A43F0805313647C4B1B6C03F06E
:102D58008053BB60BB680123FB75794B1B6803F488
:102D68008073002B18D1764B1B68754A43F4807327
:102D78001360FEF7CDFE386108E0FEF7C9FE024693
:102D88003B69D31A022B01D9032318E16C4B1B684A
:102D980003F48073002BF0D07B689B68012B06D16D
:102DA800664B1B6F654A43F0010313671CE07B68A1
:102DB8009B68052B0CD1614B1B6F604A43F00403E1
:102DC80013675E4B1B6F5D4A43F0010313670BE00B
:102DD8005A4B1B6F594A23F001031367574B1B6F5C
:102DE800564A23F0040313677B689B68002B15D0B1
:102DF800FEF78EFE38610AE0FEF78AFE02463B695E
:102E0800D31A41F28832934201D90323D7E04B4BBE
:102E18001B6F03F00203002BEED014E0FEF778FEE0
:102E280038610AE0FEF774FE02463B69D31A41F2A4
:102E38008832934201D90323C1E0404B1B6F03F052
:102E48000203002BEED1FB7D012B05D13B4B1B6C04
:102E58003A4A23F0805313647B689B69002B00F087
:102E6800AD80364B9B6803F00C03082B60D07B6861
:102E78009B69022B45D1334B00221A60FEF748FEAE
:102E8800386108E0FEF744FE02463B69D31A022B7C
:102E980001D9032393E0294B1B6803F00073002B2F
:102EA800F0D17B68DA697B681B6A1A437B685B6AC6
:102EB8009B011A437B689B6A5B08013B1B041A430E
:102EC8007B68DB6A1B061A437B681B6B1B071B4965
:102ED80013434B601B4B01221A60FEF719FE386141
:102EE80008E0FEF715FE02463B69D31A022B01D90A
:102EF800032364E0114B1B6803F00073002BF0D030
:102F08005CE0104B00221A60FEF702FE386108E010
:102F1800FEF7FEFD02463B69D31A022B01D90323B3
:102F28004DE0064B1B6803F00073002BF0D145E021
:102F38007B689B69012B07D1012340E000380240E0
:102F480000700040600047421F4B5B68FB607B6875
:102F58009B69012B30D0FB6803F480027B68DB6936
:102F68009A4229D1FB6803F03F027B681B6A9A42A8
:102F780022D1FA6847F6C07313407A68526A920100
:102F8800934219D1FB6803F440327B689B6A5B0863
:102F9800013B1B049A420FD1FB6803F070627B6807
:102FA800DB6A1B069A4207D1FB6803F0E0427B68A4
:102FB8001B6B1B079A4201D0012300E0002318462F
:102FC8001837BD4680BD00BF0038024002440346A2
:102FD800934200D1704703F8011BF9E770B50D4D16
:102FE8000D4C641BA4100026A64209D10B4D0C4CB5
:102FF80000F094F8641BA4100026A64205D170BD09
:1030080055F8043B98470136EEE755F8043B9847D6
:103018000136F2E7543100085431000854310008F1
:1030280058310008F8B555EC104BC5F30A53A3F214
:10303800FF32132A06462F4621DC002A07DA00222F
:1030480005F00043C0E9002345EC104BF8BD1D48CE
:10305800104105EA0003234305D1C6E9004507F0FE
:1030680000451C46F0E7002225EA000320462946D1
:10307800C6E90023FDF7C8F804460D46E4E7332AFD
:1030880013DD86ED000B00F01FF850B922462B46E1
:1030980020462946FDF7BAF804460D46C6E900451C
:1030A800D2E7002405F00045CEE7A3F213434FF022
:1030B800FF30D84014EA0003CFD02B4624EA0002A0
:1030C800D4E700BFFFFF0F0051EC100B10B531F033
:1030D80000440B4619D0A1F580120E498A420ED938
:1030E80003F1FF4202F5E0028A4208D90A4A134274
:1030F80007D0944207D1B0FA80F0400910BD0420EF
:10310800FCE70320FAE70020F8E70028EED10220C8
:10311800F4E700BFFFFFDF7F0000F07FF8B500BFD6
:10312800F8BC08BC9E467047F8B500BFF8BC08BCA0
:043138009E467047F8
:10313C00000000000000000001020304060708095B
:08314C0078D9FF7F01000000AB
:04315400ED01000881
:04315800C9010008A1
:0C315C000024F40010000000010000003E
:04000005080019F9DD
:00000001FF
