:020000040800F2
:1000000000800020111000087D0F0008850F0008F7
:100010008D0F0008950F00089D0F000800000000DC
:10002000000000000000000000000000A50F000814
:10003000B30F000800000000C10F0008D10F000836
:1000400061100008611000086110000861100008CC
:1000500061100008611000086110000861100008BC
:1000600061100008611000086110000861100008AC
:10007000611000086110000861100008611000089C
:100080006110000861100008611000080000000005
:1000900000000000000000000000000061100008E7
:1000A000611000086110000861100008611000086C
:1000B00000000000000000000000000061100008C7
:1000C000611000086110000861100008611000084C
:1000D00061100008611000086110000800000000B5
:1000E000611000086110000800000000000000001E
:1000F0000000000000000000000000006110000887
:100100000000000000000000611000080000000076
:100110000000000000000000611000080000000066
:1001200061100008611000086110000861100008EB
:100130006110000800000000000000000000000046
:1001400000000000000000000000000000000000AF
:1001500061100008611000086110000861100008BB
:10016000000000000000000000000000000000008F
:10017000000000000000000000000000000000007F
:10018000611000086110000800000000000000007D
:1001900000000000611000080000000000000000E6
:1001A000000000000000000000000000000000004F
:1001B00000000000000000000000000061100008C6
:0801C000611000086110000845
:1001C80010B5054C237833B9044B13B10448AFF389
:1001D80000800123237010BD0000002000000000F3
:1001E800A411000808B5034B1BB103490348AFF33A
:1001F800008008BD0000000004000020A4110008D1
:1002080081F0004102E000BF83F0004330B54FEABF
:1002180041044FEA430594EA050F08BF90EA020F2C
:100228001FBF54EA000C55EA020C7FEA645C7FEABF
:10023800655C00F0E2804FEA5454D4EB5555B8BFE2
:100248006D420CDD2C4480EA020281EA030382EA53
:10025800000083EA010180EA020281EA0303362DE5
:1002680088BF30BD11F0004F4FEA01314FF4801CB8
:100278004CEA113102D0404261EB410113F0004FCA
:100288004FEA03334CEA133302D0524263EB430381
:1002980094EA050F00F0A780A4F10104D5F1200E1F
:1002A8000DDB02FA0EFC22FA05F2801841F100017A
:1002B80003FA0EF2801843FA05F359410EE0A5F14E
:1002C80020050EF1200E012A03FA0EFC28BF4CF07F
:1002D800020C43FA05F3C01851EBE37101F0004535
:1002E80007D54FF0000EDCF1000C7EEB00006EEB42
:1002F8000101B1F5801F1BD3B1F5001F0CD34908CC
:100308005FEA30004FEA3C0C04F101044FEA445222
:1003180012F5800F80F09A80BCF1004F08BF5FEAA9
:10032800500C50F1000041EB045141EA050130BD89
:100338005FEA4C0C404141EB0101013C28BFB1F59B
:10034800801FE9D291F0000F04BF01460020B1FAE6
:1003580081F308BF2033A3F10B03B3F120020CDAB9
:100368000C3208DD02F1140CC2F10C0201FA0CF097
:1003780021FA02F10CE002F11402D8BFC2F1200CFC
:1003880001FA02F120FA0CFCDCBF41EA0C019040B2
:10039800E41AA2BF01EB0451294330BD6FEA0404FB
:1003A8001F3C1CDA0C340EDC04F11404C4F12002E6
:1003B80020FA04F001FA02F340EA030021FA04F3F8
:1003C80045EA030130BDC4F10C04C4F1200220FA4F
:1003D80002F001FA04F340EA0300294630BD21FA8D
:1003E80004F0294630BD94F0000F83F4801306BF53
:1003F80081F480110134013D4EE77FEA645C18BF47
:100408007FEA655C29D094EA050F08BF90EA020FDD
:1004180005D054EA000C04BF1946104630BD91EAD5
:10042800030F1EBF0021002030BD5FEA545C05D1D8
:100438004000494128BF41F0004130BD14F5800417
:100448003CBF01F5801130BD01F0004545F0FE418B
:1004580041F470014FF0000030BD7FEA645C1ABFC0
:10046800194610467FEA655C1CBF0B46024650EAF7
:10047800013406BF52EA033591EA030F41F4002123
:1004880030BD00BF90F0000F04BF0021704730B5A9
:100498004FF4806404F132044FF000054FF000017E
:1004A80050E700BF90F0000F04BF0021704730B53F
:1004B8004FF4806404F1320410F0004548BF404214
:1004C8004FF000013EE700BF42004FEAE2014FEA69
:1004D80031014FEA02701FBF12F07F4393F07F4F44
:1004E80081F06051704732F07F4208BF704793F047
:1004F8007F4F04BF41F40021704730B54FF460745A
:1005080001F0004521F000411CE700BF50EA01025C
:1005180008BF704730B54FF000050AE050EA010205
:1005280008BF704730B511F0004502D5404261EB75
:1005380041014FF4806404F132045FEA915C3FF4B6
:10054800D8AE4FF003025FEADC0C18BF03325FEA53
:10055800DC0C18BF033202EBDC02C2F1200300FA04
:1005680003FC20FA02F001FA03FE40EA0E0021FA29
:1005780002F11444BDE600BF70B54FF0FF0C4CF417
:10058800E06C1CEA11541DBF1CEA135594EA0C0FC9
:1005980095EA0C0F00F0DEF82C4481EA030621EA04
:1005A8004C5123EA4C5350EA013518BF52EA03353F
:1005B80041F4801143F4801338D0A0FB02CE4FF0F1
:1005C8000005E1FB02E506F00042E0FB03E54FF021
:1005D8000006E1FB03569CF0000F18BF4EF0010E19
:1005E800A4F1FF04B6F5007F64F5407404D25FEA15
:1005F8004E0E6D4146EB060642EAC62141EA5551C8
:100608004FEAC52040EA5E504FEACE2EB4F1FD0C09
:1006180088BFBCF5E06F1ED8BEF1004F08BF5FEA87
:10062800500E50F1000041EB045170BD06F0004639
:1006380046EA010140EA020081EA0301B4EB5C04E6
:10064800C2BFD4EB0C0541EA045170BD41F48011DE
:100658004FF0000E013C00F3AB8014F1360FDEBF03
:10066800002001F0004170BDC4F10004203C35DADF
:100678000C341BDC04F11404C4F1200500FA05F362
:1006880020FA04F001FA05F240EA020001F0004203
:1006980021F0004110EBD37021FA04F642EB060179
:1006A8005EEA430E08BF20EAD37070BDC4F10C04A3
:1006B800C4F1200500FA04F320FA05F001FA04F267
:1006C80040EA020001F0004110EBD37041F1000153
:1006D8005EEA430E08BF20EAD37070BDC4F120055E
:1006E80000FA05F24EEA020E20FA04F301FA05F2C6
:1006F80043EA020321FA04F001F0004121FA04F26E
:1007080020EA020000EBD3705EEA430E08BF20EA3D
:10071800D37070BD94F0000F0FD101F00046400077
:1007280041EB010111F4801F08BF013CF7D041EAF9
:10073800060195F0000F18BF704703F000465200FD
:1007480043EB030313F4801F08BF013DF7D043EACE
:100758000603704794EA0C0F0CEA135518BF95EA84
:100768000C0F0CD050EA410618BF52EA4306D1D10B
:1007780081EA030101F000414FF0000070BD50EA2A
:10078800410606BF1046194652EA430619D094EAB4
:100798000C0F02D150EA013613D195EA0C0F05D19E
:1007A80052EA03361CBF104619460AD181EA0301F2
:1007B80001F0004141F0FE4141F470014FF00000AA
:1007C80070BD41F0FE4141F4780170BD70B54FF045
:1007D800FF0C4CF4E06C1CEA11541DBF1CEA1355C5
:1007E80094EA0C0F95EA0C0F00F0A7F8A4EB0504A7
:1007F80081EA030E52EA03354FEA013100F088809E
:100808004FEA03334FF0805545EA131343EA126366
:100818004FEA022245EA111545EA10654FEA00261B
:100828000EF000419D4208BF964244F1FD0404F5D4
:10083800407402D25B084FEA3202B61A65EB030530
:100848005B084FEA32024FF480104FF4002CB6EBED
:10085800020E75EB030E22BFB61A754640EA0C006D
:100868005B084FEA3202B6EB020E75EB030E22BFAD
:10087800B61A754640EA5C005B084FEA3202B6EBEE
:10088800020E75EB030E22BFB61A754640EA9C00AD
:100898005B084FEA3202B6EB020E75EB030E22BF7D
:1008A800B61A754640EADC0055EA060E18D04FEA3B
:1008B800051545EA16754FEA06164FEAC30343EADB
:1008C80052734FEAC2025FEA1C1CC0D111F4801FA8
:1008D8000BD141EA00014FF000004FF0004CB6E7A1
:1008E80011F4801F04BF01430020B4F1FD0C88BF40
:1008F800BCF5E06F3FF6AFAEB5EB030C04BFB6EB4B
:10090800020C5FEA500C50F1000041EB045170BD3D
:100918000EF0004E4EEA113114EB5C04C2BFD4EB6A
:100928000C0541EA045170BD41F480114FF0000EEE
:10093800013C90E645EA060E8DE60CEA135594EA6A
:100948000C0F08BF95EA0C0F3FF43BAF94EA0C0F6D
:100958000AD150EA01347FF434AF95EA0C0F7FF4E2
:1009680025AF104619462CE795EA0C0F06D152EA36
:1009780003353FF4FDAE1046194622E750EA41061A
:1009880018BF52EA43067FF4C5AE50EA41047FF42B
:100998000DAF52EA43057FF4EBAE12E74FEA41028E
:1009A80012F5001215D211D56FF47873B3EB6252B9
:1009B80012D94FEAC12343F0004343EA505311F0E0
:1009C800004F23FA02F018BF404270474FF0000072
:1009D800704750EA013005D111F0004008BF6FF0B0
:1009E800004070474FF00000704700BF4FEA4102D7
:1009F800B2F1E04324BFB3F5001CDCF1FE5C0DD975
:100A080001F0004C4FEAC0024CEA5070B2F1004FBE
:100A180040EB830008BF20F00100704711F0804FC1
:100A280021D113F13872BCBF01F00040704741F486
:100A380080114FEA5252C2F11802C2F1200C10FA8A
:100A48000CF320FA02F018BF40F001004FEAC1236E
:100A58004FEAD32303FA0CFC40EA0C0023FA02F312
:100A68004FEA4303CCE77FEA625307D150EA0133E8
:100A78001EBF4FF0FE4040F44000704701F00040B8
:100A880040F0FE4040F40000704700BF80B400AF63
:100A9800114B1B6B104A43F0030313630F4B1B6886
:100AA8000E4B00221A600D4B1B680C4A43F055335D
:100AB80043F0020313600A4B1B68094B00221A60BB
:100AC800074B1B68064A43F05533136000BFBD4609
:100AD8005DF8047B704700BF003802400000024008
:100AE800000402400000000080B500AFFFF7CEFF11
:100AF800A74B5B6CA64A43F480735364A54B5B68B1
:100B0800A44A23F440335360A24B5B68A14A43F4E0
:100B180000335360A04B5B689F4A23F08073536097
:100B28009D4B9B689C4A43F4806393609A4B9B68F7
:100B3800994A23F400639360974B00225A63964BBB
:100B4800DB6A954A23F47003D362934B9B68924AFD
:100B580043F001039360904B9B688F4A43F08043B6
:100B6800936000BF8C4B1B6803F00203002BF9D085
:100B7800894BDB6C894A1360884B1B6807EE903AF7
:100B8800F8EE677A17EE900AFFF79EFC7CA3D3E98C
:100B98000023FFF71BFE02460B46104619464FF08E
:100BA80000027F4BFFF7E8FC02460B461046194649
:100BB8004FF000027B4BFFF709FE02460B4610463A
:100BC80019464FF00002784BFFF7D6FC02460B4659
:100BD800104619466CA3D3E90023FFF717FB02461A
:100BE8000B4610461946FFF701FF03466F4A13608C
:100BF8006E4B1B681846FFF767FC02460B466C48AD
:100C080043EC102B00F04EFAB0EE407AF0EE607A2A
:100C1800684B83ED007B664BD3E9002310461946E9
:100C2800FFF7BCFE03460A2B00F2C88001A252F867
:100C380023F000BF690C0008830C00089D0C000815
:100C4800B70C0008D10C0008EB0C0008050D0008D3
:100C58001F0D0008390D00084F0D0008690D000828
:100C6800554B5B69544A43F07E035361524B5B69B1
:100C7800514A23F080035361A1E04F4B5B694E4A10
:100C880043F00C0353614C4B5B694B4A23F0F2036E
:100C9800536194E0484B5B69474A43F0B60353619C
:100CA800454B5B69444A23F04803536187E0424B54
:100CB8005B69414A43F09E0353613F4B5B693E4A7F
:100CC80023F0600353617AE03B4B5B693A4A43F097
:100CD800CC035361384B5B69374A23F032035361C5
:100CE8006DE0354B5B69344A43F0DA035361324BAC
:100CF8005B69314A23F02403536160E02E4B5B6942
:100D08002D4A43F0FA0353612B4B5B692A4A23F0BF
:100D18000403536153E0284B5B69274A43F00E03F1
:100D28005361254B5B69244A23F0F003536146E085
:100D3800214B5B69204A43F0FE0353611E4B1E4A58
:100D48005B6953613BE01C4B5B691B4A43F0DE0364
:100D58005361194B5B69184A23F0200353612EE055
:100D6800154B5B69144A43F07E035361124B5B6970
:100D7800114A23F08003536121E000BFAFF30080E4
:100D88000000000000FEAF407B14AE47E17A843FCC
:100D98000038024000230140002001401C000020D0
:100DA800000014400000244000003E4020000020C5
:100DB80028000020300000200000024000BF684BDF
:100DC800D3E900014FF00002664BFFF7D5FB02465E
:100DD8000B4610461946FFF7E1FD0346092B00F2C2
:100DE800998001A252F823F0190E0008330E00086A
:100DF8004D0E0008670E0008810E00089B0E0008C3
:100E0800B50E0008CF0E0008E90E0008030F000811
:100E1800554B5B69544A43F47C535361524B5B69AD
:100E2800514A23F4404353617BE04F4B5B694E4A80
:100E380043F4C06353614C4B5B694B4A23F47943D9
:100E480053616EE0484B5B69474A43F41B43536167
:100E5800454B5B69444A23F4C843536161E0424B04
:100E68005B69414A43F40F4353613F4B5B693E4A18
:100E780023F4E043536154E03B4B5B693A4A43F443
:100E880026435361384B5B69374A23F4B2435361B5
:100E980047E0354B5B69344A43F42D435361324B89
:100EA8005B69314A23F4A44353613AE02E4B5B69F2
:100EB8002D4A43F43D4353612B4B5B692A4A23F483
:100EC800844353612DE0284B5B69274A43F4E06370
:100ED8005361254B5B69244A23F47843536120E02E
:100EE800214B5B69204A43F43F4353611E4B5B69C6
:100EF8001D4A23F48043536113E01B4B5B691A4A74
:100F080043F42F435361184B5B69174A23F4A043FA
:100F1800536106E0144B5B69134A23F47F43536122
:100F280000BF124BD3E9002310461946FFF736FDE0
:100F38000346092B0CDD0E4B5B690D4A43F00C038D
:100F480053610B4B5B690A4A23F0F203536102E6D3
:100F5800074B5B69064A23F0FF035361FBE500BFBB
:100F6800300000200000244000000240280000203B
:100F78000004024080B400AF00BFFDE780B400AFBA
:100F880000BFFDE780B400AF00BFFDE780B400AF4D
:100F980000BFFDE780B400AF00BFFDE780B400AF3D
:100FA80000BFBD465DF8047B704780B400AF00BF4A
:100FB800BD465DF8047B704780B400AF00BFBD46F6
:100FC8005DF8047B7047000080B400AF044B1B68D9
:100FD8000133034A136000BFBD465DF8047B7047C8
:100FE8003800002080B400AF064BD3F88830054A9B
:100FF80043F47003C2F8883000BFBD465DF8047B37
:10100800704700BF00ED00E0DFF834D0FFF7EAFFDB
:101018000C480D490D4A002302E0D458C45004334B
:10102800C4188C42F9D30A4A0A4C002301E0136021
:101038000432A242FBD300F011F8FFF755FD7047C8
:10104800008000200000002000000020C4110008DB
:10105800000000203C000020FEE7000070B50D4DA8
:101068000D4C641BA4100026A64209D10B4D0C4C54
:1010780000F094F8641BA4100026A64205D170BDA8
:1010880055F8043B98470136EEE755F8043B984776
:101098000136F2E7BC110008BC110008BC110008B9
:1010A800C0110008F8B555EC104BC5F30A53A3F26C
:1010B800FF32132A06462F4621DC002A07DA0022CF
:1010C80005F00043C0E9002345EC104BF8BD1D486E
:1010D800104105EA0003234305D1C6E9004507F09E
:1010E80000451C46F0E7002225EA00032046294671
:1010F800C6E90023FFF788F804460D46E4E7332ADB
:1011080013DD86ED000B00F01FF850B922462B4680
:1011180020462946FFF77AF804460D46C6E90045F9
:10112800D2E7002405F00045CEE7A3F213434FF0C1
:10113800FF30D84014EA0003CFD02B4624EA00023F
:10114800D4E700BFFFFF0F0051EC100B10B531F0D2
:1011580000440B4619D0A1F580120E498A420ED9D7
:1011680003F1FF4202F5E0028A4208D90A4A134213
:1011780007D0944207D1B0FA80F0400910BD04208E
:10118800FCE70320FAE70020F8E70028EED1022068
:10119800F4E700BFFFFFDF7F0000F07FF8B500BF76
:1011A800F8BC08BC9E467047F8B500BFF8BC08BC40
:0411B8009E46704798
:0411BC00ED01000839
:0411C000C901000859
:0400000508001011CE
:00000001FF
